{
  "_format": "hh-sol-artifact-1",
  "contractName": "Commit_v2",
  "sourceName": "contracts/eth-registry/Commit_v2.sol",
  "abi": [
    {
      "inputs": [
        {
          "internalType": "uint256",
          "name": "_minCommitmentAge",
          "type": "uint256"
        },
        {
          "internalType": "uint256",
          "name": "_maxCommitmentAge",
          "type": "uint256"
        },
        {
          "internalType": "uint256",
          "name": "baseprice",
          "type": "uint256"
        },
        {
          "internalType": "uint256",
          "name": "premiumprice",
          "type": "uint256"
        },
        {
          "internalType": "contract Register",
          "name": "_base",
          "type": "address"
        },
        {
          "internalType": "address",
          "name": "_erc20Add",
          "type": "address"
        }
      ],
      "stateMutability": "nonpayable",
      "type": "constructor"
    },
    {
      "inputs": [],
      "name": "Insufficient20Value",
      "type": "error"
    },
    {
      "inputs": [],
      "name": "InsufficientValue",
      "type": "error"
    },
    {
      "anonymous": false,
      "inputs": [
        {
          "indexed": false,
          "internalType": "string",
          "name": "name",
          "type": "string"
        },
        {
          "indexed": true,
          "internalType": "bytes32",
          "name": "label",
          "type": "bytes32"
        },
        {
          "indexed": true,
          "internalType": "address",
          "name": "owner",
          "type": "address"
        },
        {
          "indexed": false,
          "internalType": "uint256",
          "name": "expires",
          "type": "uint256"
        },
        {
          "indexed": false,
          "internalType": "string",
          "name": "suffix",
          "type": "string"
        },
        {
          "indexed": false,
          "internalType": "string",
          "name": "refCode",
          "type": "string"
        },
        {
          "indexed": false,
          "internalType": "uint256",
          "name": "fee",
          "type": "uint256"
        }
      ],
      "name": "NameRegistered",
      "type": "event"
    },
    {
      "anonymous": false,
      "inputs": [
        {
          "indexed": false,
          "internalType": "string",
          "name": "name",
          "type": "string"
        },
        {
          "indexed": true,
          "internalType": "bytes32",
          "name": "label",
          "type": "bytes32"
        },
        {
          "indexed": false,
          "internalType": "uint256",
          "name": "expires",
          "type": "uint256"
        }
      ],
      "name": "NameRenewed",
      "type": "event"
    },
    {
      "anonymous": false,
      "inputs": [
        {
          "indexed": true,
          "internalType": "address",
          "name": "previousOwner",
          "type": "address"
        },
        {
          "indexed": true,
          "internalType": "address",
          "name": "newOwner",
          "type": "address"
        }
      ],
      "name": "OwnershipTransferred",
      "type": "event"
    },
    {
      "inputs": [],
      "name": "MIN_REGISTRATION_DURATION",
      "outputs": [
        {
          "internalType": "uint256",
          "name": "",
          "type": "uint256"
        }
      ],
      "stateMutability": "view",
      "type": "function"
    },
    {
      "inputs": [
        {
          "internalType": "string",
          "name": "name",
          "type": "string"
        },
        {
          "internalType": "address",
          "name": "owner",
          "type": "address"
        },
        {
          "internalType": "uint256",
          "name": "duration",
          "type": "uint256"
        },
        {
          "internalType": "uint256",
          "name": "secret",
          "type": "uint256"
        },
        {
          "internalType": "string",
          "name": "suffix",
          "type": "string"
        },
        {
          "internalType": "string",
          "name": "refCode",
          "type": "string"
        }
      ],
      "name": "_register",
      "outputs": [
        {
          "internalType": "uint256",
          "name": "",
          "type": "uint256"
        }
      ],
      "stateMutability": "payable",
      "type": "function"
    },
    {
      "inputs": [
        {
          "internalType": "string",
          "name": "name",
          "type": "string"
        },
        {
          "internalType": "address",
          "name": "owner",
          "type": "address"
        },
        {
          "internalType": "uint256",
          "name": "duration",
          "type": "uint256"
        },
        {
          "internalType": "uint256",
          "name": "secret",
          "type": "uint256"
        },
        {
          "internalType": "string",
          "name": "suffix",
          "type": "string"
        },
        {
          "internalType": "uint256",
          "name": "amount",
          "type": "uint256"
        },
        {
          "internalType": "string",
          "name": "refCode",
          "type": "string"
        }
      ],
      "name": "_registerInErc20",
      "outputs": [
        {
          "internalType": "uint256",
          "name": "",
          "type": "uint256"
        }
      ],
      "stateMutability": "payable",
      "type": "function"
    },
    {
      "inputs": [],
      "name": "base",
      "outputs": [
        {
          "internalType": "contract Register",
          "name": "",
          "type": "address"
        }
      ],
      "stateMutability": "view",
      "type": "function"
    },
    {
      "inputs": [
        {
          "internalType": "bytes32",
          "name": "commitment",
          "type": "bytes32"
        }
      ],
      "name": "check_commit_time",
      "outputs": [
        {
          "internalType": "uint256",
          "name": "",
          "type": "uint256"
        }
      ],
      "stateMutability": "view",
      "type": "function"
    },
    {
      "inputs": [
        {
          "internalType": "string",
          "name": "name",
          "type": "string"
        }
      ],
      "name": "check_lable",
      "outputs": [
        {
          "internalType": "uint256",
          "name": "",
          "type": "uint256"
        }
      ],
      "stateMutability": "pure",
      "type": "function"
    },
    {
      "inputs": [
        {
          "internalType": "bytes32",
          "name": "commitment",
          "type": "bytes32"
        }
      ],
      "name": "commit",
      "outputs": [],
      "stateMutability": "nonpayable",
      "type": "function"
    },
    {
      "inputs": [
        {
          "internalType": "bytes32",
          "name": "",
          "type": "bytes32"
        }
      ],
      "name": "commitments",
      "outputs": [
        {
          "internalType": "uint256",
          "name": "",
          "type": "uint256"
        }
      ],
      "stateMutability": "view",
      "type": "function"
    },
    {
      "inputs": [],
      "name": "erc20Add",
      "outputs": [
        {
          "internalType": "contract IERC20",
          "name": "",
          "type": "address"
        }
      ],
      "stateMutability": "view",
      "type": "function"
    },
    {
      "inputs": [],
      "name": "getGradientFee",
      "outputs": [
        {
          "internalType": "uint256[100]",
          "name": "",
          "type": "uint256[100]"
        }
      ],
      "stateMutability": "view",
      "type": "function"
    },
    {
      "inputs": [
        {
          "internalType": "uint256",
          "name": "",
          "type": "uint256"
        }
      ],
      "name": "gradient_fee",
      "outputs": [
        {
          "internalType": "uint256",
          "name": "",
          "type": "uint256"
        }
      ],
      "stateMutability": "view",
      "type": "function"
    },
    {
      "inputs": [
        {
          "internalType": "string",
          "name": "name",
          "type": "string"
        },
        {
          "internalType": "address",
          "name": "owner",
          "type": "address"
        },
        {
          "internalType": "uint256",
          "name": "duration",
          "type": "uint256"
        },
        {
          "internalType": "uint256",
          "name": "secret",
          "type": "uint256"
        },
        {
          "internalType": "string",
          "name": "suffix",
          "type": "string"
        },
        {
          "internalType": "string",
          "name": "refCode",
          "type": "string"
        }
      ],
      "name": "makeCommitment",
      "outputs": [
        {
          "internalType": "bytes32",
          "name": "",
          "type": "bytes32"
        }
      ],
      "stateMutability": "view",
      "type": "function"
    },
    {
      "inputs": [],
      "name": "maxCommitmentAge",
      "outputs": [
        {
          "internalType": "uint256",
          "name": "",
          "type": "uint256"
        }
      ],
      "stateMutability": "view",
      "type": "function"
    },
    {
      "inputs": [],
      "name": "minCommitmentAge",
      "outputs": [
        {
          "internalType": "uint256",
          "name": "",
          "type": "uint256"
        }
      ],
      "stateMutability": "view",
      "type": "function"
    },
    {
      "inputs": [
        {
          "internalType": "string",
          "name": "name",
          "type": "string"
        },
        {
          "internalType": "string",
          "name": "suffix",
          "type": "string"
        }
      ],
      "name": "name_available",
      "outputs": [
        {
          "internalType": "bool",
          "name": "",
          "type": "bool"
        }
      ],
      "stateMutability": "view",
      "type": "function"
    },
    {
      "inputs": [],
      "name": "owner",
      "outputs": [
        {
          "internalType": "address",
          "name": "",
          "type": "address"
        }
      ],
      "stateMutability": "view",
      "type": "function"
    },
    {
      "inputs": [],
      "name": "price",
      "outputs": [
        {
          "internalType": "uint256",
          "name": "base",
          "type": "uint256"
        },
        {
          "internalType": "uint256",
          "name": "premium",
          "type": "uint256"
        }
      ],
      "stateMutability": "view",
      "type": "function"
    },
    {
      "inputs": [
        {
          "internalType": "string",
          "name": "name",
          "type": "string"
        },
        {
          "internalType": "address",
          "name": "owner",
          "type": "address"
        },
        {
          "internalType": "uint256",
          "name": "duration",
          "type": "uint256"
        },
        {
          "internalType": "uint256",
          "name": "secret",
          "type": "uint256"
        },
        {
          "internalType": "string",
          "name": "suffix",
          "type": "string"
        },
        {
          "internalType": "string",
          "name": "refCode",
          "type": "string"
        }
      ],
      "name": "register",
      "outputs": [
        {
          "internalType": "uint256",
          "name": "",
          "type": "uint256"
        }
      ],
      "stateMutability": "payable",
      "type": "function"
    },
    {
      "inputs": [
        {
          "internalType": "string",
          "name": "name",
          "type": "string"
        },
        {
          "internalType": "address",
          "name": "owner",
          "type": "address"
        },
        {
          "internalType": "uint256",
          "name": "duration",
          "type": "uint256"
        },
        {
          "internalType": "uint256",
          "name": "secret",
          "type": "uint256"
        },
        {
          "internalType": "string",
          "name": "suffix",
          "type": "string"
        },
        {
          "internalType": "uint256",
          "name": "amount",
          "type": "uint256"
        },
        {
          "internalType": "string",
          "name": "refCode",
          "type": "string"
        }
      ],
      "name": "registerInErc20",
      "outputs": [
        {
          "internalType": "uint256",
          "name": "",
          "type": "uint256"
        }
      ],
      "stateMutability": "payable",
      "type": "function"
    },
    {
      "inputs": [
        {
          "internalType": "string",
          "name": "name",
          "type": "string"
        },
        {
          "internalType": "uint256",
          "name": "duration",
          "type": "uint256"
        },
        {
          "internalType": "string",
          "name": "suffix",
          "type": "string"
        }
      ],
      "name": "renew",
      "outputs": [
        {
          "internalType": "uint256",
          "name": "",
          "type": "uint256"
        }
      ],
      "stateMutability": "payable",
      "type": "function"
    },
    {
      "inputs": [],
      "name": "renounceOwnership",
      "outputs": [],
      "stateMutability": "nonpayable",
      "type": "function"
    },
    {
      "inputs": [
        {
          "internalType": "uint256[]",
          "name": "arr",
          "type": "uint256[]"
        }
      ],
      "name": "setGradientFee",
      "outputs": [],
      "stateMutability": "nonpayable",
      "type": "function"
    },
    {
      "inputs": [
        {
          "internalType": "uint256",
          "name": "length",
          "type": "uint256"
        }
      ],
      "name": "setShortestLength",
      "outputs": [],
      "stateMutability": "nonpayable",
      "type": "function"
    },
    {
      "inputs": [
        {
          "internalType": "uint256",
          "name": "baseprice",
          "type": "uint256"
        },
        {
          "internalType": "uint256",
          "name": "premiumprice",
          "type": "uint256"
        }
      ],
      "name": "setfee",
      "outputs": [],
      "stateMutability": "nonpayable",
      "type": "function"
    },
    {
      "inputs": [],
      "name": "shortest_length",
      "outputs": [
        {
          "internalType": "uint256",
          "name": "",
          "type": "uint256"
        }
      ],
      "stateMutability": "view",
      "type": "function"
    },
    {
      "inputs": [
        {
          "internalType": "address",
          "name": "newOwner",
          "type": "address"
        }
      ],
      "name": "transferOwnership",
      "outputs": [],
      "stateMutability": "nonpayable",
      "type": "function"
    },
    {
      "inputs": [],
      "name": "withdraw",
      "outputs": [],
      "stateMutability": "nonpayable",
      "type": "function"
    }
  ],
  "bytecode": "0x60e06040523480156200001157600080fd5b506040516200226f3803806200226f8339810160408190526200003491620000f3565b6200003f336200008a565b8585116200004c57600080fd5b60809590955260a0939093526066919091556067556001600160a01b0390811660c052606880546001600160a01b0319169190921617905562000157565b600080546001600160a01b038381166001600160a01b0319831681178455604051919092169283917f8be0079c531659141344cd1fd0a4f28419497f9722a3daafe3b4186f6b6457e09190a35050565b6001600160a01b0381168114620000f057600080fd5b50565b60008060008060008060c087890312156200010d57600080fd5b8651955060208701519450604087015193506060870151925060808701516200013681620000da565b60a08801519092506200014981620000da565b809150509295509295509295565b60805160a05160c0516120b7620001b8600039600081816102a60152818161081e01528181610d9401528181610f8701526111340152600081816104760152818161136c01526116190152600081816103be015261158101526120b76000f3fe60806040526004361061019c5760003560e01c8063811dc648116100ec578063b7ecc6d71161008a578063e513c2c311610064578063e513c2c3146104b8578063f0bebf14146104e5578063f14fcbc8146104f8578063f2fde38b1461051857600080fd5b8063b7ecc6d71461044e578063ce1e09c014610464578063df5071f31461049857600080fd5b80638d839ffe116100c65780638d839ffe146103ac5780638da5cb5b146103e0578063a035b1fe146103fe578063a95a12521461042e57600080fd5b8063811dc64814610348578063839df9451461036a5780638a95b09f1461039757600080fd5b80634c8fa029116101595780635885654c116101335780635885654c146102e05780635bb57fe1146102f35780635bfe0a2514610313578063715018a61461033357600080fd5b80634c8fa029146102515780634defaa6a146102645780635001f3b51461029457600080fd5b8063135d349b146101a1578063173248a8146101c75780631894be52146101e7578063296f378f146102095780633ccfd60b1461021c57806343906cab14610231575b600080fd5b6101b46101af366004611941565b610538565b6040519081526020015b60405180910390f35b3480156101d357600080fd5b506101b46101e2366004611a04565b6109e1565b3480156101f357600080fd5b50610207610202366004611aaf565b610aa6565b005b6101b4610217366004611941565b610ab9565b34801561022857600080fd5b50610207610ada565b34801561023d57600080fd5b5061020761024c366004611ad1565b610b1f565b6101b461025f366004611aea565b610b2c565b34801561027057600080fd5b5061028461027f366004611ba4565b610f43565b60405190151581526020016101be565b3480156102a057600080fd5b506102c87f000000000000000000000000000000000000000000000000000000000000000081565b6040516001600160a01b0390911681526020016101be565b6101b46102ee366004611c08565b611018565b3480156102ff57600080fd5b506101b461030e366004611ad1565b611254565b34801561031f57600080fd5b506068546102c8906001600160a01b031681565b34801561033f57600080fd5b5061020761126b565b34801561035457600080fd5b5061035d61127f565b6040516101be9190611c82565b34801561037657600080fd5b506101b4610385366004611ad1565b60696020526000908152604090205481565b3480156103a357600080fd5b506101b4600181565b3480156103b857600080fd5b506101b47f000000000000000000000000000000000000000000000000000000000000000081565b3480156103ec57600080fd5b506000546001600160a01b03166102c8565b34801561040a57600080fd5b50606654606754610419919082565b604080519283526020830191909152016101be565b34801561043a57600080fd5b50610207610449366004611cb4565b6112bb565b34801561045a57600080fd5b506101b460015481565b34801561047057600080fd5b506101b47f000000000000000000000000000000000000000000000000000000000000000081565b3480156104a457600080fd5b506101b46104b3366004611d5a565b611314565b3480156104c457600080fd5b506101b46104d3366004611ad1565b60009081526069602052604090205490565b6101b46104f3366004611aea565b611336565b34801561050457600080fd5b50610207610513366004611ad1565b611355565b34801561052457600080fd5b50610207610533366004611d9c565b6113f1565b6000806000808c8c89896040516020016105559493929190611dbe565b60405160208183030381529060405280519060200120905060006105ae8e8e8080601f01602080910402602001604051908101604052809392919081815260200183838082843760009201919091525061146792505050565b9050600281606481106105c3576105c3611deb565b01546105d35760025493506105eb565b600281606481106105e6576105e6611deb565b015493505b60006301e133806105fc8d87611e17565b6106069190611e36565b905087606860009054906101000a90046001600160a01b03166001600160a01b03166370a082318f6040518263ffffffff1660e01b815260040161065991906001600160a01b0391909116815260200190565b602060405180830381865afa158015610676573d6000803e3d6000fd5b505050506040513d601f19601f8201168201806040525081019061069a9190611e58565b10806106b257506066546106af908290611e71565b88105b156106d05760405163c6f957dd60e01b815260040160405180910390fd5b6106d86117b8565b8360001c8160000181815250508d81602001906001600160a01b031690816001600160a01b0316815250508c8160400181815250508f8f8080601f0160208091040260200160405190810160405280939291908181526020018383808284376000920191909152505050506060820152604080516020601f8d018190048102820181019092528b8152908c908c9081908401838280828437600081840152601f19601f8201169050808301925050505050505081608001819052508b8160a0018181525050878160c00181905250888160e001818152505060006107d48260600151836020015184604001518560a0015186608001518e6109e1565b905061081c82606001518f838f8f8080601f01602080910402602001604051908101604052809392919081815260200183838082843760009201919091525061156a92505050565b7f00000000000000000000000000000000000000000000000000000000000000006001600160a01b0316631f354cc583600001518460200151856040015186606001518760800151604051602001610875929190611eb5565b6040516020818303038152906040526040518563ffffffff1660e01b81526004016108a39493929190611f1d565b6020604051808303816000875af11580156108c2573d6000803e3d6000fd5b505050506040513d601f19601f820116820180604052508101906108e69190611e58565b6068546040516323b872dd60e01b8152336004820152306024820152604481018d90529197506001600160a01b0316906323b872dd906064016020604051808303816000875af115801561093e573d6000803e3d6000fd5b505050506040513d601f19601f820116820180604052508101906109629190611f54565b5081602001516001600160a01b0316857f7186bc129d4746c158d0c99343ea6491e902aed34aa827f57963ab6557492b4884606001518560400151426109a89190611e71565b86608001518e8860e001516040516109c4959493929190611f76565b60405180910390a350939f9e505050505050505050505050505050565b60008087846040516020016109f7929190611eb5565b604051602081830303815290604052805190602001209050610a198885610f43565b610a6a5760405162461bcd60e51b815260206004820152601760248201527f546865206e616d6520616c72656164792065786973747300000000000000000060448201526064015b60405180910390fd5b8087878786604051602001610a83959493929190611fc8565b604051602081830303815290604052805190602001209150509695505050505050565b610aae61170e565b606691909155606755565b6000610acc8a8a8a8a8a8a8a8a8a610538565b9a9950505050505050505050565b610ae261170e565b600080546040516001600160a01b03909116914780156108fc02929091818181858888f19350505050158015610b1c573d6000803e3d6000fd5b50565b610b2761170e565b600155565b6000806000808b8b8888604051602001610b499493929190611dbe565b6040516020818303038152906040528051906020012090506000610ba28d8d8080601f01602080910402602001604051908101604052809392919081815260200183838082843760009201919091525061146792505050565b905060028160648110610bb757610bb7611deb565b0154610bc7576002549350610bdf565b60028160648110610bda57610bda611deb565b015493505b60006301e13380610bf08c87611e17565b610bfa9190611e36565b606654909150610c0b908290611e71565b341015610c2b5760405163044044a560e21b815260040160405180910390fd5b610c336117b8565b8360001c8160000181815250508c81602001906001600160a01b031690816001600160a01b0316815250508b8160400181815250508e8e8080601f0160208091040260200160405190810160405280939291908181526020018383808284376000920191909152505050506060820152604080516020601f8c018190048102820181019092528a8152908b908b9081908401838280828437600081840152601f19601f8201169050808301925050505050505081608001819052506000610d4a826060015183602001518f8f8f8f8080601f016020809104026020016040519081016040528093929190818152602001838380828437600081840152601f19601f820116905080830192505050505050508e6109e1565b9050610d9282606001518e838e8e8080601f01602080910402602001604051908101604052809392919081815260200183838082843760009201919091525061156a92505050565b7f00000000000000000000000000000000000000000000000000000000000000006001600160a01b0316631f354cc583600001518460200151856040015186606001518760800151604051602001610deb929190611eb5565b6040516020818303038152906040526040518563ffffffff1660e01b8152600401610e199493929190611f1d565b6020604051808303816000875af1158015610e38573d6000803e3d6000fd5b505050506040513d601f19601f82011682018060405250810190610e5c9190611e58565b606654909650610e6d908490611e71565b341115610ebc5760665433906108fc90610e88908690611e71565b610e929034612006565b6040518115909202916000818181858888f19350505050158015610eba573d6000803e3d6000fd5b505b81602001516001600160a01b0316857f7186bc129d4746c158d0c99343ea6491e902aed34aa827f57963ab6557492b488460600151856040015142610f019190611e71565b60808701516066548f90610f16908b90611e71565b604051610f27959493929190611f76565b60405180910390a350939e9d5050505050505050505050505050565b6000808383604051602001610f59929190611eb5565b60408051808303601f190181529082905280516020909101206312dc929d60e31b82526004820181905291507f00000000000000000000000000000000000000000000000000000000000000006001600160a01b0316906396e494e890602401602060405180830381865afa158015610fd6573d6000803e3d6000fd5b505050506040513d601f19601f82011682018060405250810190610ffa9190611f54565b8015611010575060015461100d85611467565b10155b949350505050565b600080600080888887876040516020016110359493929190611dbe565b604051602081830303815290604052805190602001209050600061108e8a8a8080601f01602080910402602001604051908101604052809392919081815260200183838082843760009201919091525061146792505050565b9050600281606481106110a3576110a3611deb565b01546110b35760025493506110cb565b600281606481106110c6576110c6611deb565b015493505b60006301e133806110dc8a87611e17565b6110e69190611e36565b6066549091506110f7908290611e71565b3410156111175760405163044044a560e21b815260040160405180910390fd5b60405163c475abff60e01b815260048101849052602481018a90527f00000000000000000000000000000000000000000000000000000000000000006001600160a01b03169063c475abff906044016020604051808303816000875af1158015611185573d6000803e3d6000fd5b505050506040513d601f19601f820116820180604052508101906111a99190611e58565b6066549094506111ba908290611e71565b3411156112095760665433906108fc906111d5908490611e71565b6111df9034612006565b6040518115909202916000818181858888f19350505050158015611207573d6000803e3d6000fd5b505b827f93bc1a84707231b1d9552157299797c64a1a8c5bc79f05153716630c9c4936fc8c8c8760405161123d9392919061201d565b60405180910390a250919998505050505050505050565b6002816064811061126457600080fd5b0154905081565b61127361170e565b61127d6000611768565b565b611287611806565b60408051610c808101918290529060029060649082845b81548152602001906001019080831161129e575050505050905090565b6112c361170e565b60005b8151811015611310578181815181106112e1576112e1611deb565b6020026020010151600282606481106112fc576112fc611deb565b01558061130881612056565b9150506112c6565b5050565b60008282604051611326929190612071565b6040519081900390209392505050565b60006113488989898989898989610b2c565b9998505050505050505050565b6000818152606960205260409020544290611391907f000000000000000000000000000000000000000000000000000000000000000090611e71565b106113de5760405162461bcd60e51b815260206004820152601f60248201527f5468697320636f6d6d69746d656e7420686173206e6f742065787069726564006044820152606401610a61565b6000908152606960205260409020429055565b6113f961170e565b6001600160a01b03811661145e5760405162461bcd60e51b815260206004820152602660248201527f4f776e61626c653a206e6577206f776e657220697320746865207a65726f206160448201526564647265737360d01b6064820152608401610a61565b610b1c81611768565b8051600090819081905b8082101561156157600085838151811061148d5761148d611deb565b01602001516001600160f81b0319169050600160ff1b8110156114bc576114b5600184611e71565b925061154e565b600760fd1b6001600160f81b0319821610156114dd576114b5600284611e71565b600f60fc1b6001600160f81b0319821610156114fe576114b5600384611e71565b601f60fb1b6001600160f81b03198216101561151f576114b5600484611e71565b603f60fa1b6001600160f81b031982161015611540576114b5600584611e71565b61154b600684611e71565b92505b508261155981612056565b935050611471565b50909392505050565b60008281526069602052604090205442906115a6907f000000000000000000000000000000000000000000000000000000000000000090611e71565b11156116025760405162461bcd60e51b815260206004820152602560248201527f436f6d6d69746d656e74206973206e6f742076616c69642c20506c6561736520604482015264776169742160d81b6064820152608401610a61565b600082815260696020526040902054429061163e907f000000000000000000000000000000000000000000000000000000000000000090611e71565b1161169f5760405162461bcd60e51b815260206004820152602b60248201527f436f6d6d69746d656e742068617320657870697265642c506c6561736520636f60448201526a6d6d697420616761696e2160a81b6064820152608401610a61565b6116a98482610f43565b6116eb5760405162461bcd60e51b81526020600482015260136024820152724e616d6520697320756e617661696c61626c6560681b6044820152606401610a61565b600082815260696020526040812055600183101561170857600080fd5b50505050565b6000546001600160a01b0316331461127d5760405162461bcd60e51b815260206004820181905260248201527f4f776e61626c653a2063616c6c6572206973206e6f7420746865206f776e65726044820152606401610a61565b600080546001600160a01b038381166001600160a01b0319831681178455604051919092169283917f8be0079c531659141344cd1fd0a4f28419497f9722a3daafe3b4186f6b6457e09190a35050565b6040518061010001604052806000815260200160006001600160a01b031681526020016000815260200160608152602001606081526020016000815260200160608152602001600081525090565b60405180610c8001604052806064906020820280368337509192915050565b60008083601f84011261183757600080fd5b50813567ffffffffffffffff81111561184f57600080fd5b60208301915083602082850101111561186757600080fd5b9250929050565b80356001600160a01b038116811461188557600080fd5b919050565b634e487b7160e01b600052604160045260246000fd5b604051601f8201601f1916810167ffffffffffffffff811182821017156118c9576118c961188a565b604052919050565b600082601f8301126118e257600080fd5b813567ffffffffffffffff8111156118fc576118fc61188a565b61190f601f8201601f19166020016118a0565b81815284602083860101111561192457600080fd5b816020850160208301376000918101602001919091529392505050565b600080600080600080600080600060e08a8c03121561195f57600080fd5b893567ffffffffffffffff8082111561197757600080fd5b6119838d838e01611825565b909b50995089915061199760208d0161186e565b985060408c0135975060608c0135965060808c01359150808211156119bb57600080fd5b6119c78d838e01611825565b909650945060a08c0135935060c08c01359150808211156119e757600080fd5b506119f48c828d016118d1565b9150509295985092959850929598565b60008060008060008060c08789031215611a1d57600080fd5b863567ffffffffffffffff80821115611a3557600080fd5b611a418a838b016118d1565b9750611a4f60208a0161186e565b965060408901359550606089013594506080890135915080821115611a7357600080fd5b611a7f8a838b016118d1565b935060a0890135915080821115611a9557600080fd5b50611aa289828a016118d1565b9150509295509295509295565b60008060408385031215611ac257600080fd5b50508035926020909101359150565b600060208284031215611ae357600080fd5b5035919050565b60008060008060008060008060c0898b031215611b0657600080fd5b883567ffffffffffffffff80821115611b1e57600080fd5b611b2a8c838d01611825565b909a509850889150611b3e60208c0161186e565b975060408b0135965060608b0135955060808b0135915080821115611b6257600080fd5b611b6e8c838d01611825565b909550935060a08b0135915080821115611b8757600080fd5b50611b948b828c016118d1565b9150509295985092959890939650565b60008060408385031215611bb757600080fd5b823567ffffffffffffffff80821115611bcf57600080fd5b611bdb868387016118d1565b93506020850135915080821115611bf157600080fd5b50611bfe858286016118d1565b9150509250929050565b600080600080600060608688031215611c2057600080fd5b853567ffffffffffffffff80821115611c3857600080fd5b611c4489838a01611825565b9097509550602088013594506040880135915080821115611c6457600080fd5b50611c7188828901611825565b969995985093965092949392505050565b610c808101818360005b6064811015611cab578151835260209283019290910190600101611c8c565b50505092915050565b60006020808385031215611cc757600080fd5b823567ffffffffffffffff80821115611cdf57600080fd5b818501915085601f830112611cf357600080fd5b813581811115611d0557611d0561188a565b8060051b9150611d168483016118a0565b8181529183018401918481019088841115611d3057600080fd5b938501935b83851015611d4e57843582529385019390850190611d35565b98975050505050505050565b60008060208385031215611d6d57600080fd5b823567ffffffffffffffff811115611d8457600080fd5b611d9085828601611825565b90969095509350505050565b600060208284031215611dae57600080fd5b611db78261186e565b9392505050565b83858237601760f91b81850190815260009083856001830137600093016001019283525090949350505050565b634e487b7160e01b600052603260045260246000fd5b634e487b7160e01b600052601160045260246000fd5b6000816000190483118215151615611e3157611e31611e01565b500290565b600082611e5357634e487b7160e01b600052601260045260246000fd5b500490565b600060208284031215611e6a57600080fd5b5051919050565b60008219821115611e8457611e84611e01565b500190565b60005b83811015611ea4578181015183820152602001611e8c565b838111156117085750506000910152565b60008351611ec7818460208801611e89565b601760f91b9083019081528351611ee5816001840160208801611e89565b01600101949350505050565b60008151808452611f09816020860160208601611e89565b601f01601f19169290920160200192915050565b84815260018060a01b0384166020820152826040820152608060608201526000611f4a6080830184611ef1565b9695505050505050565b600060208284031215611f6657600080fd5b81518015158114611db757600080fd5b60a081526000611f8960a0830188611ef1565b8660208401528281036040840152611fa18187611ef1565b90508281036060840152611fb58186611ef1565b9150508260808301529695505050505050565b85815260018060a01b038516602082015283604082015282606082015260a060808201526000611ffb60a0830184611ef1565b979650505050505050565b60008282101561201857612018611e01565b500390565b604081528260408201528284606083013760006060848301015260006060601f19601f8601168301019050826020830152949350505050565b600060001982141561206a5761206a611e01565b5060010190565b818382376000910190815291905056fea2646970667358221220cf74db7434ab17e2c804fc2e778d11be255520e998e0872ac0db90f7cc3d6f4c64736f6c634300080c0033",
  "linkReferences": {},
  "deployedLinkReferences": {}
}